:03035A00012A0174
:10000E001203B512041F8F2BE52BB4010CE52A70D9
:10001E00047F0180027F008F2AE52BB40207E4F5EE
:10002E0028F527F529E52B64037033E528FD7C00C0
:10003E00E4FF1203367F057E001203E2E527FD7C06
:10004E00007F011203367F057E001203E2E529FDD3
:10005E007C007F021203367F057E001203E2E52B41
:10006E00B40415E4FF1202B68F287F011202B68F78
:10007E00277F021202B68F29E52875F00A84FD7CCF
:10008E00007F0112040DE52875F00A84E5F0FD7C71
:10009E00007F0212040D7D0B7C007F0312040DE520
:1000AE002775F00A84FD7C007F0412040DE5277588
:1000BE00F00A84E5F0FD7C007F0512040D7D0B7CBB
:1000CE00007F0612040DE52975F00A84FD7C007F81
:1000DE000712040DE52975F00A84E5F0FD7C007F1A
:0E00EE000812040D7F017E001203E2020011D1
:10030F00E52A60220529E529C394644019E4F529FB
:10031F000527E527943C400EE4F5270528E52894AA
:07032F003C4003E4F5282225
:03000B000200FCF4
:1000FC00C0E0C0F0C083C082C0D075D000C000C0CA
:0D010C0001C002C003C004C005C006C0074A
:10011900758A18758CFC051FE51F7002051EC394AE
:1001290014E51E94004009751E00751F0012027D1A
:100139000521E52170020520C39402E520940040C1
:10014900097520007521001203980523E523700223
:100159000522C3940AE522940040097522007523FB
:040169000012030F6E
:10016D00D007D006D005D004D003D002D001D000E6
:0B017D00D0D0D082D083D0F0D0E03290
:1003E200EF1FAC0670011E4C600A7D027CEFDCFE42
:0403F200DDFC80ECC2
:0103F60022E4
:05041F00E4AF2EF52EF4
:0104240022B5
:1003CC00E4FF20B1010F20B0027F0220B2027F03B4
:0503DC0020B3027F04C4
:0103E10022F9
:10027D00852C2D1203CC8F2CE52DB40107E52C70A8
:10028D0003752E01E52DB40207E52C7003752E02C2
:10029D00E52DB40307E52C7003752E03E52DB4048D
:0802AD0007E52C7003752E0417
:0102B5002226
:1003B5005389F0438901758A66758CFCC28DD28C90
:0703C500D2A9D2AFD2B92288
:10035D000909000A0A0A0A0A0A0A0A0C123F065B70
:0C036D004F666D7D077F6F0040010801A6
:09040D00AE0574092FF8A60622C1
:10021400E4F580EE705BEF14B40800505490022FA4
:1002240075F003A4C58325F0C58373020247020257
:100234004B02024F02025302025702025F0202679C
:1002440002026FD2A4800ED2A48012D2A48016D24D
:10025400A4801AC2A4D2A3D2A28016C2A4D2A3C2DA
:10026400A2800EC2A4C2A3D2A28006C2A4C2A3C208
:09027400A274122DF8E6F58022B7
:10039800AF087E0074092508F8E6FD7C00120214F7
:0C03A8000508E508C3940940037508012E
:0103B4002226
:100336008F248C258D261204167FA01202E6120346
:10034600F7AF241202E61203F7AF261202E61203F3
:04035600F7020003A7
:0202B6008F2493
:1002B8001204167FA01202E61203F7AF241202E618
:1002C8001203F71204167FA11202E61203F71203B3
:0D02D8007A8F257F01120403120003AF2569
:0102E50022F6
:09041600D2A0D2A1C2A0C2A12211
:07000300C2A0D2A1D2A0228D
:0202E600AD0762
:1002E800E4FB74807E00A803088006CEA2E713CE44
:1002F80013D8F8FFEDF582EF558224FF92A0D2A122
:06030800C2A10BBB08DCE2
:01030E0022CC
:10037A00E4FFD2A0FED2A130A00D7480A8060880A6
:0D038A0002C313D8FC4207C2A10EBE08E852
:010397002243
:0A040300EF24FF92A0D2A1C2A122B3
:0B03F700D2A0D2A1A2A0E433FFC2A15B
:0104020022D7
:0300000002018872
:0C018800787FE4F6D8FD75812E0201CFCF
:1001940002000EE493A3F8E493A34003F68001F273
:1001A40008DFF48029E493A3F85407240CC8C3336C
:1001B400C4540F4420C8834004F456800146F6DF3B
:1001C400E4800B010204081020408090035AE47E6E
:1001D400019360BCA3FF543F30E509541FFEE49330
:1001E400A360010ECF54C025E060A840B8E493A3F7
:1001F400FAE493A3F8E493A3C8C582C8CAC583CA22
:10020400F0A3C8C582C8CAC583CADFE9DEE780BED9
:010379000083
:00000001FF
