:10014D00000400040004160218021906180219040E
:10015D001D04180C110211021606140216041904BE
:0F016D00140C0F0211021204190218041906FFD4
:10009A00204A0A0000F921F980F9E1FA36FA8CFAC5
:1000AA00D8FB23FB68FBAAFBE9FC23FC5BFC8FFC67
:1000BA00C0FCEFFD1BFD45FD6CFD91FDB4FDD5FDBA
:1000CA00F4FE12FE2EFE47FE60FE78FE8EFEA2FEB3
:0D00DA00B6FEC9FEDAFEEBFEFAFF09FF17C5
:10011C0012017CE50890014D93FFF460208F0905D6
:10012C0008E5089375F07DA4FFAEF0120193050865
:10013C00C28C7F057E00120193D28C80D6C28C803B
:01014C00FEB4
:03000B000200E808
:1000E800C0E0C0D075D000C000C006E50925E024F6
:1000F8000AF8E6FE08E64E6012E50925E0240AF84B
:10010800E6FE08E6F58AEEF58CB2A5D006D000D05A
:04011800D0D0E03231
:10019300EF1FAC0670011E4C600A7D027CEFDCFE93
:0401A300DDFC80EC13
:0101A7002235
:10017C005389F0438901758A66758CFCC28DD28CCB
:07018C00D2A9D2AFD2B922C3
:0300000002000EED
:0C000E00787FE4F6D8FD758153020055A0
:10001A0002011CE493A3F8E493A34003F68001F2DF
:10002A0008DFF48029E493A3F85407240CC8C333E7
:10003A00C4540F4420C8834004F456800146F6DFB6
:10004A00E4800B010204081020408090009AE47EAC
:10005A00019360BCA3FF543F30E509541FFEE493AB
:10006A00A360010ECF54C025E060A840B8E493A372
:10007A00FAE493A3F8E493A3C8C582C8CAC583CA9D
:10008A00F0A3C8C582C8CAC583CADFE9DEE780BE55
:0100E7000018
:00000001FF
