:0A046E0050617373776F72643A00F7
:03048C000122004A
:10031F0012044B7BFF7A04796E7D017F011203C2B9
:10032F001200038F22E52260F7D3940A5009E522C9
:10033F0075F00A8485F022E522FB7A00750C027DA8
:08034F00017F0212040380D8B3
:10043600EF1FAC0670011E4C600A7D027CEFDCFEED
:04044600DDFC80EC6D
:01044A00228F
:06045F00C2A58F80D2A7A8
:080465007F027EEFDEFEDFFCEA
:01046D00226C
:0A047800C2A612045FC2A7020465C9
:1003E500CFCDCFCECCCE1201CB7C007D0A1201CB76
:0403F500ED2430FFC4
:0A03F900D2A612045FC2A702046539
:10042000AE07BE0104ED148006BE0209ED243F4470
:0604300080FF1204782297
:10044B007F381204787F0C1204787F061204787FB1
:04045B00010204781E
:0A048200AC03120420AF040203F9DA
:0603C2008B088A09890A7C
:1003C800120420E4FDAB08AA09A90A8D82758300EE
:0C03D80012018CFF60061203F90D80E991
:0103E40022F6
:0C038F007F0AEA24FFFDE434FFFC7E003E
:08039B008E0D8F0E8C0F8D10EA
:1003A3007F017E00E4FBEBC39510E50F6480F874D6
:0E03B3008098500AAC0DAD0E1201B90B80E817
:0103C1002219
:040403008A0A8B0BCB
:10040700120420AA0CEAD39400400D12038FAC0A01
:08041700AD0B1203E51A80EDA4
:01041F0022BA
:1002AC00120420C3EA64809480400B7F2B1203F964
:1002BC008A168B17800E7F2D1203F9C3E49BF5175A
:1002CC00E49AF516AA15EAD39400400D12038FACEC
:0902DC0016AD171203E51A80EDBE
:0102E50022F6
:0402E6008A1A8B1BCA
:1002EA00120420AA1CEAD3940040297F1012039119
:1002FA00AC1AAD1BCFCDCFCECCCE1201CBEF540F63
:10030A00FEC3940AEE5004243080022437FF1203FD
:04031A00F91A80D17B
:01031E0022BC
:040357008A1F8B204E
:10035B00120420AA21EAD394004028EA24FFFDE4EA
:10036B0034FFFC7F027E0012039BAC1FAD20CFCD70
:10037B00CFCECCCE1201CBEF54012430FF1203F9B8
:03038B001A80D203
:01038E00224C
:10000300E4F5087590FFC2932097137F14FE120442
:10001300363097FD7F147E00120436750801209652
:10002300147F147E001204363096FD7F147E001276
:1000330004367508052095147F147E0012043630AB
:1000430095FD7F147E001204367508092094147FF1
:10005300147E001204363094FD7F147E00120436A1
:1000630075080D7590FFC2922097147F147E0012BD
:1000730004363097FD7F147E001204367508022083
:1000830096147F147E001204363096FD7F147E0092
:100093001204367508062095147F147E0012043668
:1000A3003095FD7F147E0012043675080A209414DF
:1000B3007F147E001204363094FD7F147E001204F8
:1000C3003675080E7590FFC2912097147F147E0039
:1000D3001204363097FD7F147E0012043675080330
:1000E3002096147F147E001204363096FD7F147E12
:1000F300001204367508072095147F147E0012043D
:10010300363095FD7F147E0012043675080B20945B
:10011300147F147E001204363094FD7F147E001287
:10012300043675080F7590FFC2902097147F147ED4
:10013300001204363097FD7F147E001204367508D2
:10014300042096147F147E001204363096FD7F142B
:100153007E001204367508082095147F147E001261
:1001630004363095FD7F147E0012043675080C208A
:1001730094147F147E001204363094FD7F147E00A5
:08018300120436750810AF08E4
:01018B002251
:03000000020220D9
:0C022000787FE4F6D8FD758122020267A9
:10018C00BB010CE58229F582E5833AF583E0225028
:10019C0006E92582F8E622BBFE06E92582F8E22272
:0D01AC00E58229F582E5833AF583E493228C
:1001B900EF8DF0A4A8F0CF8CF0A428CE8DF0A42E5A
:0201C900FE2214
:1001CB00BC000BBE0029EF8DF084FFADF022E4CC18
:1001DB00F875F008EF2FFFEE33FEEC33FCEE9DECE1
:1001EB00984005FCEE9DFE0FD5F0E9E4CEFD22ED27
:1001FB00F8F5F0EE8420D21CFEADF075F008EF2F71
:10020B00FFED33FD4007985006D5F0F222C398FD61
:05021B000FD5F0EA22FE
:10022C0002031FE493A3F8E493A34003F68001F2C6
:10023C0008DFF48029E493A3F85407240CC8C333D3
:10024C00C4540F4420C8834004F456800146F6DFA2
:10025C00E4800B010204081020408090048CE47EA2
:10026C00019360BCA3FF543F30E509541FFEE49397
:10027C00A360010ECF54C025E060A840B8E493A35E
:10028C00FAE493A3F8E493A3C8C582C8CAC583CA89
:10029C00F0A3C8C582C8CAC583CADFE9DEE780BE41
:01048F00006C
:00000001FF
