:1004780050617373776F72643A0054727565202007
:0F048800004572726F72200043616E63656C00F5
:03053400011C00A7
:10018C001204FD7BFF7A0479787D017F01120455FE
:10019C001200038F1CE51C60F7D3940A5041C3E591
:1001AC00199404E51894005028AE1AAF1B7C007DFE
:1001BC000A1202848E1A8F1BE51C75F00A84E5F076
:1001CC00251BF51BE4351AF51A0519E519700205FE
:1001DC0018750C04AB1BAA1A7D017F021204B5E53D
:1001EC001C640B7036E51BB4220DE51AB405087BB4
:1001FC00FF7A04798280067BFF7A0479897D0B7FF4
:10020C0001120455E4F518F519F51AF51B750C04D3
:10021C00AB1BAA1A7D017F021204B5E51C640C60AD
:10022C000302019C7BFF7A0479907D0B7F01120401
:10023C0055E4F518F519F51AF51B750C04AB1BAA4A
:0B024C001A7D017F021204B502019C24
:1004E800EF1FAC0670011E4C600A7D027CEFDCFE3B
:0404F800DDFC80ECBB
:0104FC0022DD
:06051100C2A58F80D2A7F5
:080517007F027EEFDEFEDFFC37
:01051F0022B9
:0A052000C2A6120511C2A7020517BA
:10049700CFCDCFCECCCE1202967C007D0A1202962B
:0404A700ED2430FF11
:0A04AB00D2A6120511C2A702051720
:1004D200AE07BE0104ED148006BE0209ED243F44BE
:0604E20080FF120520223C
:1004FD007F381205207F0C1205207F061205207F04
:04050D0001020520C2
:0A052A00AC031204D2AF040204ABCC
:060455008B088A09890AE8
:10045B001204D2E4FDAB08AA09A90A8D82758300A8
:0C046B00120257FF60061204AB0D80E97E
:010477002262
:0C0422007F0AEA24FFFDE434FFFC7E00AA
:08042E008E0D8F0E8C0F8D1056
:100436007F017E00E4FBEBC39510E50F6480F87442
:0E0446008098500AAC0DAD0E1202840B80E8B7
:010454002285
:0404B5008A0A8B0B19
:1004B9001204D2AA0CEAD39400400D120422AC0A09
:0804C900AD0B1204971A80ED3F
:0104D1002208
:100377001204D2C3EA64809480400B7F2B1204AB33
:100387008A168B17800E7F2D1204ABC3E49BF517DB
:10039700E49AF516AA15EAD39400400D120422AC8C
:0903A70016AD171204971A80ED3F
:0103B000222A
:0403B1008A1F8B20F4
:1003B5001204D2AA21EAD3940040297F1012042402
:1003C500AC1FAD20CFCDCFCECCCE120296EF540FC1
:1003D500FEC3940AEE5004243080022437FF120431
:0403E500AB1A80D1FE
:0103E90022F1
:0403EA008A248B25B1
:1003EE001204D2AA26EAD394004028EA24FFFDE4A0
:1003FE0034FFFC7F027E0012042EAC24AD25CFCD3F
:10040E00CFCECCCE120296EF54012430FF1204ABA5
:03041E001A80D26F
:0104210022B8
:10000300E4F5087590FFC2932097137F14FE120442
:10001300E83097FD7F147E001204E87508012096EE
:10002300147F147E001204E83096FD7F147E0012C4
:1000330004E87508052095147F147E001204E83047
:1000430095FD7F147E001204E87508092094147F3F
:10005300147E001204E83094FD7F147E001204E83D
:1000630075080D7590FFC2922097147F147E0012BD
:1000730004E83097FD7F147E001204E8750802201F
:1000830096147F147E001204E83096FD7F147E00E0
:100093001204E87508062095147F147E001204E804
:1000A3003095FD7F147E001204E875080A2094142D
:1000B3007F147E001204E83094FD7F147E00120446
:1000C300E875080E7590FFC2912097147F147E0087
:1000D3001204E83097FD7F147E001204E8750803CC
:1000E3002096147F147E001204E83096FD7F147E60
:1000F300001204E87508072095147F147E0012048B
:10010300E83095FD7F147E001204E875080B2094F7
:10011300147F147E001204E83094FD7F147E0012D5
:1001230004E875080F7590FFC2902097147F147E22
:10013300001204E83097FD7F147E001204E875086E
:10014300042096147F147E001204E83096FD7F1479
:100153007E001204E87508082095147F147E0012AF
:1001630004E83095FD7F147E001204E875080C2026
:1001730094147F147E001204E83094FD7F147E00F3
:080183001204E8750810AF0832
:01018B002251
:030000000202EB0E
:0C02EB00787FE4F6D8FD7581260203320E
:10025700BB010CE58229F582E5833AF583E022505C
:1002670006E92582F8E622BBFE06E92582F8E222A6
:0D027700E58229F582E5833AF583E49322C0
:10028400EF8DF0A4A8F0CF8CF0A428CE8DF0A42E8E
:02029400FE2248
:10029600BC000BBE0029EF8DF084FFADF022E4CC4C
:1002A600F875F008EF2FFFEE33FEEC33FCEE9DEC15
:1002B600984005FCEE9DFE0FD5F0E9E4CEFD22ED5B
:1002C600F8F5F0EE8420D21CFEADF075F008EF2FA5
:1002D600FFED33FD4007985006D5F0F222C398FD96
:0502E6000FD5F0EA2233
:1002F70002018CE493A3F8E493A34003F68001F290
:1003070008DFF48029E493A3F85407240CC8C33307
:10031700C4540F4420C8834004F456800146F6DFD6
:10032700E4800B0102040810204080900534E47E2D
:10033700019360BCA3FF543F30E509541FFEE493CB
:10034700A360010ECF54C025E060A840B8E493A392
:10035700FAE493A3F8E493A3C8C582C8CAC583CABD
:10036700F0A3C8C582C8CAC583CADFE9DEE780BE75
:0105370000C3
:00000001FF
