:100954002020005345540020202D20202D2020004D
:0F09640020203A20203A202000202020202000B0
:10064000120527E518FB3395E0FA750C027D017F52
:1006500001120991E519FB3395E0FA750C027D044E
:100660007F01120991E51AFB3395E0FA750C027DC2
:10067000077F01120991E51BFB3395E0FA750C0227
:100680007D017F02120991E51CFB3395E0FA750CA0
:10069000027D047F02120991E51DFB3395E0FA7596
:0906A0000C027D077F02020991A2
:10000E00E524B4020B0521E52175F0068485F02167
:10001E00E524640360030200E874182521F806D372
:10002E00E518648094E34003E4F518D3E519648081
:10003E00948C4003751901E51964016023E5196478
:10004E0003601DE51964056017E51964076011E585
:10005E00196408600BE519640A6005E519B40C0B08
:10006E00D3E51A6480949F404D8048E5196404607E
:10007E0011E5196406600BE51964096005E519B40C
:10008E000B0BD3E51A6480949E402B8026E519B4A1
:10009E000224E51875F004120471AFF0EF700BD363
:1000AE00E51A6480949D400E8009D3E51A6480940D
:1000BE009C4003751A01D3E51B648094974003E4BA
:1000CE00F51BD3E51C648094BB4003E4F51CD3E51B
:1000DE001D648094BB4003E4F51DE52464046003B5
:1000EE000201E074182521F816C3E5186480948087
:1000FE005003751863C3E519648094815003751914
:10010E000CE51964016023E5196403601DE51964AB
:10011E00056017E51964076011E5196408600BE5C1
:10012E0019640A6005E519B40C0EC3E51A648094CF
:10013E0081507B751A1F8076E51964046011E519EC
:10014E006406600BE51964096005E519B40B1AC362
:10015E00E51A648094815003751A1ED3E51A6480E3
:10016E00949E404A751A1E8045E5196402703FE55B
:10017E001875F004120471AFF0EF701AC3E51A642B
:10018E008094815003751A1DD3E51A6480949D40A6
:10019E001D751A1D8018C3E51A648094815003756D
:1001AE001A1CD3E51A6480949C4003751A1CC3E58F
:1001BE001B648094805003751B17C3E51C648094E8
:1001CE00805003751C3BC3E51D64809480500375FD
:1001DE001D3BE5217014E523B4010F7BFF7A0979ED
:1001EE00547D017F011209318011E518FB3395E032
:1001FE00FA750C027D017F01120991E521B40114FB
:10020E00E523B4010F7BFF7A0979547D047F011237
:10021E0009318011E519FB3395E0FA750C027D0466
:10022E007F01120991E521B40214E523B4010F7B7D
:10023E00FF7A0979547D077F011209318011E51A81
:10024E00FB3395E0FA750C027D077F01120991E5EB
:10025E0021B40314E523B4010F7BFF7A0979547D91
:10026E00017F021209318011E51BFB3395E0FA750F
:10027E000C027D017F02120991E521B40414E523DD
:10028E00B4010F7BFF7A0979547D047F0212093184
:10029E008011E51CFB3395E0FA750C027D047F029C
:1002AE00120991E521B40514E523B4010F7BFF7A01
:1002BE000979547D077F021209318011E51DFB3348
:1002CE0095E0FA750C027D077F021209917BFF7A89
:1002DE000979577D0A7F02120931E521FB7A0075F3
:0902EE000C027D0D7F0202099152
:1006A9001209F01200031209AE7BFF7A09795B7D0A
:1006B900017F011209317BFF7A0979647D017F028B
:1006C9001209311202F712070F8F24E52464017011
:1006D90023E5227007752201F5218018E522B4016E
:1006E90013E4F5221202F77BFF7A09796D7D0A7FFF
:1006F90002120931E5221460080470CA120640800A
:06070900C512000E80C0C5
:03000B0002085494
:09085400C0E0C0D075D000C0075F
:10085D00758A18758CFC0520E5207002051FC39460
:10086D00F4E51F94014012751F00752000E52370FB
:09087D00047F0180027F008F233B
:07088600D007D0D0D0E03212
:1009DB00EF1FAC0670011E4C600A7D027CEFDCFE43
:0409EB00DDFC80ECC3
:0109EF0022E5
:060A0400C2A58F80D2A7FD
:080A0A007F027EEFDEFEDFFC3F
:010A120022C1
:0A0A1300C2A6120A04C2A7020A0AD2
:10097300CFCDCFCECCCE1204D27C007D0A1204D2CE
:04098300ED2430FF30
:0A098700D2A6120A04C2A7020A0A4F
:1009C500AE07BE0104ED148006BE0209ED243F44C6
:0609D50080FF120A13224C
:1009F0007F38120A137F0C120A137F06120A137F24
:040A000001020A13D2
:0A0A1D00AC031209C5AF04020987FB
:060931008B088A09890A07
:100937001209C5E4FDAB08AA09A90A8D82758300CF
:0C094700120493FF60061209870D80E97E
:010953002281
:0C08FE007F0AEA24FFFDE434FFFC7E00CA
:08090A008E0D8F0E8C0F8D1075
:100912007F017E00E4FBEBC39510E50F6480F87461
:0E0922008098500AAC0DAD0E1204C00B80E898
:0109300022A4
:040991008A0A8B0B38
:100995001209C5AA0CEAD39400400D1208FEAC0A50
:0809A500AD0B1209731A80ED7D
:0109AD002227
:10081A001209C5C3EA64809480400B7F2B120987B2
:10082A008A168B17800E7F2D120987C3E49BF51752
:10083A00E49AF516AA15EAD39400400D1208FEAC04
:09084A0016AD171209731A80EDB6
:010853002282
:04088D008A278B2803
:100891001209C5AA29EAD3940040297F1012090040
:1008A100AC27AD28CFCDCFCECCCE1204D2EF540F92
:1008B100FEC3940AEE5004243080022437FF12094B
:0408C100871A80D141
:0108C5002210
:0408C6008A2C8B2DC0
:1008CA001209C5AA2EEAD394004028EA24FFFDE4BF
:1008DA0034FFFC7F027E0012090AAC2CAD2DCFCD6D
:1008EA00CFCECCCE1204D2EF54012430FF120987A6
:0308FA001A80D28F
:0108FD0022D8
:090A270007181A071B0B21140625
:05000300C2B5C2B622E7
:050770002DFDEE3CFC34
:060775008C088D09AB07A2
:10077B00D2B5E4FD74017E00A805088005C333CE15
:10078B0033CED8F9FFEBF582EF558224FF92B4D22A
:10079B00B6C2B60DBD08DDE4FD74017E00A80508E8
:1007AB008005C333CE33CED8F9FFE5085EFEE509ED
:1007BB005F4E24FF92B4D2B6C2B60DBD08DBC2B5F4
:0107CB00220B
:0207CC00AD0777
:1007CE00E4F9430501D2B5FB74017E00A80308804D
:1007DE0005C333CE33CED8F9FFEDF582EF55822423
:1007EE00FF92B4C2B6D2B60BBB08DDE4FBD2B6C2E2
:1007FE00B630B40D7401A803088002C333D8FC428E
:0B080E00010BBB08E8C2B5C2B4AF018B
:0108190022BC
:1002F700E4FDFC7F8E120775E51875F00A1204718C
:10030700FF3395E0FEEFC4F8540FC868FFEEC454FE
:10031700F048FEE51875F00A120471ADF0ED33955B
:10032700E0FCEF7F8C120770E51975F00A12047173
:10033700FF3395E0FEEFC4F8540FC868FFEEC454CE
:10034700F048FEE51975F00A120471ADF0ED33952A
:10035700E0FCEF7F88120770E51A75F00A12047146
:10036700FF3395E0FEEFC4F8540FC868FFEEC4549E
:10037700F048FEE51A75F00A120471ADF0ED3395F9
:10038700E0FCEF2DFDEE3CFC7F86120775E51B7543
:10039700F00A120471FF3395E0FEEFC4F8540FC85A
:1003A70068FFEEC454F048FEE51B75F00A120471AD
:1003B700ADF0ED3395E0FCEF2DFDEE3CFC7F8412B4
:1003C7000775E51C75F00A120471FF3395E0FEEF1F
:1003D700C4F8540FC868FFEEC454F048FEE51C7516
:1003E700F00A120471ADF0ED3395E0FCEF2DFDEE50
:1003F7003CFC7F82120775E51D75F00A120471FF38
:100407003395E0FEEFC4F8540FC868FFEEC454F00C
:1004170048FEE51D75F00A120471ADF0ED3395E065
:10042700FCEF2DFDEE3CFC7F80120775E51E75F095
:100437000A120471FF3395E0FEEFC4F8540FC86841
:10044700FFEEC454F048FEE51E75F00A120471ADC4
:10045700F0ED3395E0FCEF2DFDEE3CFC7F8A1207B3
:0A046700757D807C007F8E02077512
:100527007F8C1207CCEFC4540F75F00AA4FEEF546A
:100537000F2EF5187F881207CCEFC4540F75F00AF9
:10054700A4FEEF540F2EF5197F861207CCEFC45483
:100557000F75F00AA4FEEF540F2EF51A7F841207C9
:10056700CCEFC4540F75F00AA4FEEF540F2EF51B01
:100577007F821207CCEFC4540F75F00AA4FEEF5424
:100587000F2EF51C7F801207CCEFC4540F75F00AAD
:10059700A4FEEF540F2EF51D7F8A1207CCEFC4542B
:0C05A7000F75F00AA4FEEF540F2EF51E95
:0105B3002225
:10070F00E4F50820B1137F14FE1209DB30B1FD7F31
:10071F00147E001209DB75080120B0147F147E00CF
:10072F001209DB30B0FD7F147E001209DB75080261
:10073F0020B2147F147E001209DB30B2FD7F147ECD
:10074F00001209DB75080320B3147F147E00120911
:10075F00DB30B3FD7F147E001209DB750804AF0890
:01076F002267
:1009AE005389F0438901758A18758CFCC28DD28CDF
:0709BE00D2A9D2AFD2B92289
:030000000205B442
:0C05B400787FE4F6D8FD75812E0205FB6F
:10047100C2D530F707B2D563F0FF05F030E70CB213
:10048100D5F4048463F0FF05F080018430D502F4D3
:02049100042243
:10049300BB010CE58229F582E5833AF583E022501E
:1004A30006E92582F8E622BBFE06E92582F8E22268
:0D04B300E58229F582E5833AF583E4932282
:1004C000EF8DF0A4A8F0CF8CF0A428CE8DF0A42E50
:0204D000FE220A
:1004D200BC000BBE0029EF8DF084FFADF022E4CC0E
:1004E200F875F008EF2FFFEE33FEEC33FCEE9DECD7
:1004F200984005FCEE9DFE0FD5F0E9E4CEFD22ED1D
:10050200F8F5F0EE8420D21CFEADF075F008EF2F66
:10051200FFED33FD4007985006D5F0F222C398FD57
:050522000FD5F0EA22F4
:1005C0000206A9E493A3F8E493A34003F68001F2A2
:1005D00008DFF48029E493A3F85407240CC8C3333C
:1005E000C4540F4420C8834004F456800146F6DF0B
:1005F000E4800B0102040810204080900A27E47E6A
:10060000019360BCA3FF543F30E509541FFEE493FF
:10061000A360010ECF54C025E060A840B8E493A3C6
:10062000FAE493A3F8E493A3C8C582C8CAC583CAF1
:10063000F0A3C8C582C8CAC583CADFE9DEE780BEA9
:010A300000C5
:00000001FF
