:10013900120195E4F5148514127F0A7E001201C29A
:100149000514E514C3946440ED751464E514D3945F
:100159000040E08514127F0A7E001201C215148046
:01016900EBAA
:03000B0002016A85
:10016A00C0E0C0F0C0D0758A9C758CFF0513E513FA
:10017A0075F0648485F013E513C395125004D2A177
:0B018A008002C2A1D0D0D0F0D0E03243
:1001C200EF1FAC0670011E4C600A7D027CEFDCFE64
:0401D200DDFC80ECE4
:0101D6002206
:05000300E4AF17F51742
:0100080022D5
:1001AC00E4FF20B1010F20B0027F0220B2027F03D6
:0501BC0020B3027F04E6
:0101C100221B
:100100008515161201AC8F15E516B40107E51570BB
:1001100003751701E516B40207E51570037517029C
:10012000E516B40307E5157003751703E516B40467
:0801300007E5157003751704C3
:0101380022A4
:0C01D7000A083F065B4F666D7D077F6FD6
:10009A00EE705BEF14B4080050549000B275F00390
:1000AA00A4C58325F0C583730200CA0200CE0200EC
:1000BA00D20200D60200DA0200E20200EA0200F2EC
:1000CA00D2A4800ED2A48012D2A48016D2A4801AFE
:1000DA00C2A4D2A3D2A28016C2A4D2A3C2A2800E64
:1000EA00C2A4C2A3D2A28006C2A4C2A3C2A2740896
:0600FA002DF8E6F580225E
:100195005389F0438901758A9C758CFFC28DD28C79
:0701A500D2A9D2AFD2B922AA
:0300000002000EED
:0C000E00787FE4F6D8FD758117020055DC
:10001A00020139E493A3F8E493A34003F68001F2C2
:10002A0008DFF48029E493A3F85407240CC8C333E7
:10003A00C4540F4420C8834004F456800146F6DFB6
:10004A00E4800B01020408102040809001D7E47E6E
:10005A00019360BCA3FF543F30E509541FFEE493AB
:10006A00A360010ECF54C025E060A840B8E493A372
:10007A00FAE493A3F8E493A3C8C582C8CAC583CA9D
:10008A00F0A3C8C582C8CAC583CADFE9DEE780BE55
:0101E300001B
:00000001FF
