:1002AF00EF1FAC0670011E4C600A7D027CEFDCFE76
:0402BF00DDFC80ECF6
:0102C3002218
:0602E800C2A58F80D2A721
:0802EE007F027EC7DEFEDFFC8B
:0102F60022E5
:0A031000C2A61202E8C2A70202EE24
:10027400CFCDCFCECCCE1200427C007D0A120042FC
:04028400ED2430FF36
:0A028800D2A61202E8C2A70202EE9D
:1002C4007F381203107F0C1203107F061203107F75
:0402D4000102031010
:1002D800EDBF0103148002243F4480FF1203102263
:0A031A00AC031202D8AF04020288FF
:060251008B088A09890AEE
:100257001202D8E4FDAB08AA09A90A8D82758300AA
:0C026700120003FF60061202880D80E9FF
:010273002268
:0C021E007F0AEA24FFFDE434FFFC7E00B0
:08022A008E0D8F0E8C0F8D105C
:100232007F017E00E4FBEBC39510E50F6480F87448
:0E0242008098500AAC0DAD0E1200300B80E813
:01025000228B
:040292008A0A8B0B3E
:100296001202D8AA0CEAD39400400D12021EAC0A30
:0802A600AD0B1202741A80ED89
:0102AE00222D
:10016A001202D8C3EA6480948040097F2B12028865
:10017A008A168B17D3EB9400EA64809480500E7F22
:10018A002D120288C3E49BF517E49AF516AA15EA1C
:10019A00D39400400D12021EAC16AD171202741A47
:0201AA0080EDE6
:0101AC002230
:0401AD008A1A8B1B04
:1001B1001202D8AA1CEAD3940040297F101202200F
:1001C100AC1AAD1BCFCDCFCECCCE120042EF540F27
:1001D100FEC3940AEE5004243080022437FF120239
:0401E100881A80D127
:0101E50022F7
:0401E6008A1F8B20C1
:1001EA001202D8AA21EAD394004028EA24FFFDE4A7
:1001FA0034FFFC7F027E0012022AAC1FAD20CFCD55
:10020A00CFCECCCE120042EF54012430FF12028826
:03021A001A80D275
:01021D0022BE
:0D02F70041444A20204E544320205247002D
:10010C001202C47BFF7A0279F77D017F0112025142
:10011C007F9C1200978E228F23750C03AB23AA228F
:10012C007D017F021202927FDC1200978E228F23B8
:10013C00750C03AB23AA227D067F021202927FACC0
:10014C001200978E228F23750C03AB23AA227D0BF2
:0E015C007F021202927F0A7E001202AF80B272
:020097008F08D0
:10009900E4F509F50AC2B6C2B5F50B74807E00A86D
:1000A9000B088006CEA2E713CE13D8F8FFEF550848
:1000B90024FF92B4D2B6C2B6050BE50BB408DCE452
:1000C900F50BD2B6C2B67F0A7E001202AF30B71462
:1000D900E47E80A80B088005CEC313CE13D8F9425D
:1000E9000AEE4209050BE50BC3941040D5D2B5E5DC
:1000F9000830E304E5098007E509C413135403FF35
:020109007E0076
:01010B0022D1
:03000000020304F4
:0C030400787FE4F6D8FD75812302010C1F
:10000300BB010CE58229F582E5833AF583E02250B2
:1000130006E92582F8E622BBFE06E92582F8E222FC
:0D002300E58229F582E5833AF583E4932216
:10003000EF8DF0A4A8F0CF8CF0A428CE8DF0A42EE4
:02004000FE229E
:10004200BC000BBE0029EF8DF084FFADF022E4CCA2
:10005200F875F008EF2FFFEE33FEEC33FCEE9DEC6B
:10006200984005FCEE9DFE0FD5F0E9E4CEFD22EDB1
:10007200F8F5F0EE8420D21CFEADF075F008EF2FFB
:10008200FFED33FD4007985006D5F0F222C398FDEC
:050092000FD5F0EA2289
:00000001FF
