:100003001200C07DFF7C00E4FF12007D7D817C0037
:100013007F0112007D7DA37C007F0212007D7D9510
:100023007C007F0312007D7D897C007F0412007DAC
:100033007D957C007F0512007D7DA37C007F0612E9
:0D004300007D7D817C007F0712007D80B66E
:10009F00EF1FAC0670011E4C600A7D027CEFDCFE88
:0400AF00DDFC80EC08
:0100B300222A
:02005000AD07FA
:10005200E4FB74807E00A803088006CEA2E713CEDC
:1000620013D8F8FFEDF582EF558224FF92B4D2B691
:0A007200C2B60BBB08DCD2B5C2B564
:01007C002261
:10007D00AA07AF05120050AF027480A807088002CE
:10008D00C313D8FCF4F5807F017E0012009F7580AC
:02009D00FF2240
:0500C000C2B6C2B5222A
:030000000200B447
:0C00B400787FE4F6D8FD75810702000398
:00000001FF
