:02042E0041008B
:1002290012037F7BFF7A04792E7D017F0112030C73
:100239001204221203C3EF60FA753028752F2BE5DB
:1002490030FB7A007518027D017F02120268E52FE2
:0F025900FB7A007518027D057F0212026880D4BF
:10036A00EF1FAC0670011E4C600A7D027CC7DCFEE2
:04037A00DDFC80EC3A
:01037E00225C
:0603B400C2A58F80D2A754
:0803BA007F027EC7DEFEDFFCBE
:0103C2002218
:0A03FF00C2A61203B4C2A70203BA9B
:10032F00CFCDCFCECCCE1201917C007D0A120191A0
:04033F00ED2430FF7A
:0A034300D2A61203B4C2A70203BA47
:10037F007F381203FF7F0C1203FF7F061203FF7FEC
:04038F00010203FF65
:1003A400EDBF0103148002243F4480FF1203FF22A7
:0A040900AC031203A4AF0402034386
:06030C008B148A1589160E
:100312001203A4E4FDAB14AA15A9168D82758300FD
:0C032200120152FF60061203430D80E937
:01032E0022AC
:0C02D9007F0AEA24FFFDE434FFFC7E00F5
:0802E5008E198F1A8C1B8D1C71
:1002ED007F017E00E4FBEBC3951CE51B6480F87475
:0E02FD008098500AAC19AD1A12017F0B80E8F0
:01030B0022CF
:04034D008A268B274A
:100351001203A4AA28EAD39400400D1202D9AC26B4
:08036100AD2712032F1A80EDF5
:010369002271
:1001E6001203A4C3EA6480948040097F2B12034360
:1001F6008A228B23D3EB9400EA64809480500E7F8E
:100206002D120343C3E49BF523E49AF522AA21EABF
:10021600D39400400D1202D9AC22AD2312032F1A3B
:0202260080ED69
:0102280022B3
:040268008A168B1750
:10026C001203A4AA18EAD3940040297F101202DBCF
:10027C00AC16AD17CFCDCFCECCCE120191EF540F23
:10028C00FEC3940AEE5004243080022437FF12037C
:04029C00431A80D1B0
:0102A000223B
:0402A1008A2B8B2CED
:1002A5001203A4AA2DEAD394004028EA24FFFDE412
:1002B50034FFFC7F027E001202E5AC2BAD2CCFCDC6
:1002C500CFCECCCE120191EF54012430FF1203435F
:0302D5001A80D2BA
:0102D8002203
:0B03E900D288C289D2A8D2AFD2B822BD
:100393005389F0438901758A66758CFCC28DC28CC2
:0103A3002237
:0B03F400AD07AC068C8CAF058F8A2291
:09041300AF8CEFFEAD8AEDFF2273
:06041C00EF24FF928C2288
:060422001203930203E93E
:0D03C300E50F6006E4F50F7F01227F0022A8
:0D03D000E50D6006E4F50D7F01227F00229F
:03042800AF0C22F4
:03042B00AF0B22F2
:03000300020006F2
:10000600C0E0C0F0C083C082C0D075D000C000C0C0
:1000160001C002C003C004C005C006C007E50870E1
:100026000CFFFE1203F47F0112041C8049E50864EC
:100036000170491204138E098F0AE4FFFE1203F4BD
:10004600D3E50A94C8E50994324010E50A94B0E570
:100056000994365006750802020137D3E50A94FE64
:10006600E50994294010E50A94E6E509942D500621
:10007600750D0102012F750801020137E5086402BA
:1000860060030201371204138E098F0AE4FFFE1281
:1000960003F4D3E50A946CE5099402402CE50A942E
:1000A60054E50994065022E50E131313541F241029
:1000B600F8C000E6FFE50E5407FE7401A8060880A6
:1000C60002C333D8FCF45F8034D3E50A94D6E5093D
:1000D60094064030E50A94BEE509940A5026E50EDA
:1000E600131313541F2410F8C000E6FFE50E54073F
:1000F600FE7401A806088002C333D8FC4FD000F670
:10010600050E8006750E00750801E50EC3942040A5
:1001160020750E00E511F4B5100FE513F4B51209BC
:1001260085100C85120B750F01E4FF12041C75086F
:1001360000D007D006D005D004D003D002D001D01D
:0C01460000D0D0D082D083D0F0D0E032C6
:030000000203DD1B
:0C03DD00787FE4F6D8FD7581300202291B
:10015200BB010CE58229F582E5833AF583E0225062
:1001620006E92582F8E622BBFE06E92582F8E222AC
:0D017200E58229F582E5833AF583E49322C6
:10017F00EF8DF0A4A8F0CF8CF0A428CE8DF0A42E94
:02018F00FE224E
:10019100BC000BBE0029EF8DF084FFADF022E4CC52
:1001A100F875F008EF2FFFEE33FEEC33FCEE9DEC1B
:1001B100984005FCEE9DFE0FD5F0E9E4CEFD22ED61
:1001C100F8F5F0EE8420D21CFEADF075F008EF2FAB
:1001D100FFED33FD4007985006D5F0F222C398FD9C
:0501E1000FD5F0EA2239
:00000001FF
