:0D07910054656D70657261747572653A0093
:1004620012079E7FE87E0312074712075C7BFF7A22
:100472000779917D017F0112065512079E12062906
:100482008F258E248D238C22E4FFFEFDFCAB25AA52
:1004920024A923A8221201A9501E7B2D7D017F02CF
:1004A2001207C1AF25AE24AD23AC221202228F2542
:1004B2008E248D238C2280097B2B7D017F021207E3
:1004C200C1AF25AE24AD23AC22120271AB07AA063E
:1004D200750C037D027F021206967B2E7D057F023C
:1004E2001207C17F007E407D1C7C46AB25AA24A951
:1004F20023A822120003120271E47B107A27F9F872
:100502001203C2750C047D067F0212069602047C59
:0507CB00E4AF28F52851
:0107D0002206
:10071B00E4FF20B1010F20B0027F0220B2027F0361
:05072B0020B3027F0471
:0107300022A6
:10054C0085262712071B8F26E527B40107E52670A1
:10055C0003752801E527B40207E526700375280208
:10056C00E527B40307E5267003752803E527B404D3
:08057C0007E526700375280451
:010584002254
:10074700EF1FAC0670011E4C600A7D027CEFDCFED9
:04075700DDFC80EC59
:01075B00227B
:06078200C2A58F80D2A782
:080788007F027EEFDEFEDFFCC4
:010790002246
:0A07B700C2A6120782C2A70207883B
:10067800CFCDCFCECCCE1203317C007D0A12033110
:04068800ED2430FF2E
:0A068C00D2A6120782C2A702078857
:10073100AE07BE0104ED148006BE0209ED243F445C
:0607410080FF1207B72241
:10075C007F381207B77F0C1207B77F061207B77FD7
:04076C00010207B7C8
:0A07C100AC03120731AF0402068CEE
:060655008B088A09890AE6
:10065B00120731E4FDAB08AA09A90A8D8275830044
:0C066B001202F2FF600612068C0D80E9FE
:010677002260
:0C05F6007F0AEA24FFFDE434FFFC7E00D5
:080602008E0D8F0E8C0F8D1080
:10060A007F017E00E4FBEBC39510E50F6480F8746C
:0E061A008098500AAC0DAD0E12031F0B80E845
:0106280022AF
:040696008A0A8B0B36
:10069A00120731AA0CEAD39400400D1205F6AC0AEF
:0806AA00AD0B1206781A80ED79
:0106B2002225
:10051200120731C3EA64809480400B7F2B12068C51
:100522008A168B17800E7F2D12068CC3E49BF5175B
:10053200E49AF516AA15EAD39400400D1205F6AC1A
:0905420016AD171206781A80EDBF
:01054B00228D
:040585008A1A8B1B28
:10058900120731AA1CEAD3940040297F101205F8FA
:10059900AC1AAD1BCFCDCFCECCCE120331EF540F59
:1005A900FEC3940AEE5004243080022437FF120659
:0405B9008C1A80D147
:0105BD00221B
:0405BE008A1F8B20E5
:1005C200120731AA21EAD394004028EA24FFFDE46D
:1005D20034FFFC7F027E00120602AC1FAD20CFCD9D
:1005E200CFCECCCE120331EF54012430FF12068C51
:0305F2001A80D29A
:0105F50022E3
:1006D000D2B7C2B77FF7DFFED2B77F20DFFEA2B767
:0906E000E433FE7FF7DFFEAF06F4
:0106E90022EE
:10077000C2B77E04DEFEEF24FF92B77E18DEFED203
:01078000B7C1
:010781002255
:10070300C2B77F02DFFED2B77F02DFFEA2B7E433B8
:07071300FE7F18DFFEAF06B8
:01071A0022BC
:0206EA00AD075A
:1006EC00E4FC7401A804088002C333D8FC5DFF123B
:0606FC0007700CBC08ECC5
:0107020022D4
:1006B300E4FDFC120703EF600D7401A80408800237
:0C06C300C333D8FC42050CBC08E9AF05AD
:0106CF002208
:0D079E001206D07FCC1206EA7F440206EA64
:100629001206D07FCC1206EA7FBE1206EA1206B382
:100639008F081206B3EFFEE508FFFDAC06EC1202C7
:0B06490038E4FBFA7980784112010CC4
:010654002283
:10000300EC4D6011E8497017ED33EC3304600DE4F7
:10001300FCFFFEFD22E933E8330470F80202DD122F
:1000230002A858046009E4CC248150062850090230
:1000330002E72840030202E4C0E0EB4A7044B980BF
:1000430006D0E0FB0202D3EF4E701CBD8008EBFF2D
:10005300EAFEE9FD80EBE98DF0A4FEE5F00200EC99
:10006300E9CDF9EAFEEBFFEF89F0A4FCE5F0CE89D8
:10007300F0A42EFFE435F0CD89F0A42DFEE435F095
:100083008067EF4E7005BD80D780C3EF8BF0A4ACC3
:10009300F0EE8BF0A42CFCE435F0F8EF8AF0A42CFE
:1000A300E5F038FCE433CB8DF0A42CFCE5F03BF811
:1000B300EE8AF0A42CFCE5F038F8E433CF89F0A401
:1000C3002CFCE5F038CF3400CE89F0A42FFFE5F007
:1000D3003EFEE433C98DF0A42EFEE5F039CD8AF05F
:1000E300A42FFFE5F03EFEE43DFD33D0E0FB5007D7
:1000F3000BBB000F0202E7EC2CFCEF33FFEE33FEE9
:06010300ED33FD0202BF16
:100109000202E7EC5D046005E8590470030202DDB0
:100119001202A8580460F6EC4860F2EC7004FDFE87
:10012900FF22C860DB2481C85009C39860025006C9
:100139000202E49850CAF582E9294B4A7005AB825C
:100149000202D375F0007C1A7880C3EF9BEE9AED1A
:1001590099400DC3EF9BFFEE9AFEED99FDE842F041
:10016900DC23ACF0D0E0FFD0E0FED0E0FDAB822094
:10017900E7101BEB60BAEC2CFCEF33FFEE33FEED1E
:1001890033FD0202BFE803F830E705C0F075F0005F
:10019900EF2FFFEE33FEED33FD40B830E7C280AA02
:1001A90074F8CC6480CCC86480C8F58204604FC3FD
:1001B900EB9FF5F0EA9E42F0E99D42F0E89C45F09C
:1001C900603C501DE5825FFFE582D313CB5BCBF426
:1001D9002B5582FB50280ABA002409B9002008804F
:1001E9001DE5825BFBE582D313CF5FCFF4C3132FE9
:1001F9005582FF50090EBE00050DBD00010CC3EB71
:100209009FF5F0EA9E42F0E99D42F0E89C45F060D6
:0902190007CC4820E701B3EC22F8
:10022200ED33EC33600A047003BD8004ECB2E7FCEA
:0102320022A9
:1002330075F020800E75F010800575F0087D007E46
:10024300007F003392D530D503120454EC334010B1
:10025300EF33FFEE33FEED33FDEC33FCD5F0ED224F
:0E026300E5F0247EA2D513CC92E7CDCEFF228B
:10027100EDD2E7CD33EC3392D524814006E4FFFE85
:10028100FDFC22FCE4CFCECDCC24E0501174FF80E4
:10029100EDC3CC13CCCD13CDCE13CECF13CF047081
:0702A100F030D5DE02045429
:1002A800E9D2E7C933E833F892D5EDD2E7CD33EC9C
:0702B80033FC5002B2D52215
:1002BF00EC30E7100FBF000C0EBE00080DBD0004A0
:1002CF000BEB6014A2D5EB13FCED92E7FD2274FF4C
:1002DF00FCFDFEFF22E480F8A2D574FF13FC7D80A5
:0302EF00E480EFB9
:030000000207AB49
:0C07AB00787FE4F6D8FD75812802046216
:1002F200BB010CE58229F582E5833AF583E02250C1
:1003020006E92582F8E622BBFE06E92582F8E2220A
:0D031200E58229F582E5833AF583E4932224
:10031F00EF8DF0A4A8F0CF8CF0A428CE8DF0A42EF2
:02032F00FE22AC
:10033100BC000BBE0029EF8DF084FFADF022E4CCB0
:10034100F875F008EF2FFFEE33FEEC33FCEE9DEC79
:10035100984005FCEE9DFE0FD5F0E9E4CEFD22EDBF
:10036100F8F5F0EE8420D21CFEADF075F008EF2F09
:10037100FFED33FD4007985006D5F0F222C398FDFA
:050381000FD5F0EA2297
:1003860075F008758200EF2FFFEE33FECD33CDCC2E
:1003960033CCC58233C5829BED9AEC99E5829840B1
:1003A6000CF582EE9BFEED9AFDEC99FC0FD5F0D68E
:1003B600E4CEFBE4CDFAE4CCF9A88222B800C1B9B8
:1003C6000059BA002DEC8BF084CFCECDFCE5F0CBF6
:1003D600F97818EF2FFFEE33FEED33FDEC33FCEB2F
:1003E60033FB10D703994004EB99FB0FD8E5E4F9EA
:1003F600FA227818EF2FFFEE33FEED33FDEC33FCD7
:10040600C933C910D7059BE99A4007EC9BFCE99ACA
:10041600F90FD8E0E4C9FAE4CCFB2275F010EF2F0F
:10042600FFEE33FEED33FDCC33CCC833C810D7070F
:100436009BEC9AE899400AED9BFDEC9AFCE899F84A
:0E0446000FD5F0DAE4CDFBE4CCFAE4C8F922DD
:0E045400C3E49FFFE49EFEE49DFDE49CFC22B9
:00000001FF
