:10008200120003AF08050812001A7FE87E0312006F
:030092006D80F08E
:03002300020026B2
:10002600C0E0C0F0C083C082C0D075D000C000C0A0
:1000360001C002C003C004C005C006C00730980C4A
:10004600E599F4F5A0AF9912001AC298D007D00628
:10005600D005D004D003D002D001D000D0D0D082B9
:07006600D083D0F0D0E0329E
:10006D00EF1FAC0670011E4C600A7D027CEFDCFEBA
:04007D00DDFC80EC3A
:01008100225C
:1000030075985043878053890F438920758BF37507
:070013008DF3C2ABD28E2277
:08001A008F993099FDC2992273
:0300000002009566
:0C009500787FE4F6D8FD75810802008237
:00000001FF
