:10015600E4FDFC7F01FE12008F1200F58F12E512FE
:1001660060F7FD7C007F017E0012008F7F647E00B9
:0501760012017B80E492
:10019D00EF1FAC0670011E4C600A7D027CEFDCFE89
:0401AD00DDFC80EC09
:0101B100222B
:1000F500E4F51320B1137F14FE12019D30B1FD7F8D
:10010500147E0012019D75130120B0147F147E002A
:1001150012019D30B0FD7F147E0012019D75130202
:1001250020B2147F147E0012019D30B2FD7F147E33
:100135000012019D75130320B3147F147E00120174
:100145009D30B3FD7F147E0012019D751304AF131E
:010155002287
:0C01B2000A083F065B4F666D7D077F6FFB
:10008F00EE705BEF14B4080050549000A775F003A6
:10009F00A4C58325F0C583730200BF0200C302000D
:1000AF00C70200CB0200CF0200D70200DF0200E739
:1000BF00D2A4800ED2A48012D2A48016D2A4801A09
:1000CF00C2A4D2A3D2A28016C2A4D2A3C2A2800E6F
:1000DF00C2A4C2A3D2A28006C2A4C2A3C2A27408A1
:0600EF002DF8E6F5802269
:0501BF00007FE3DFFEFC
:0101C4002218
:04017B00AD07AC061A
:10017F00E4FBFAED25E0FFEC33FEC3EB9FEA9E5064
:0D018F000CB2A51201BF0BBB00010A80E6F7
:01019C002240
:03000000020003F8
:0C000300787FE4F6D8FD75811302004AF6
:10000F00020156E493A3F8E493A34003F68001F2B0
:10001F0008DFF48029E493A3F85407240CC8C333F2
:10002F00C4540F4420C8834004F456800146F6DFC1
:10003F00E4800B01020408102040809001B2E47E9E
:10004F00019360BCA3FF543F30E509541FFEE493B6
:10005F00A360010ECF54C025E060A840B8E493A37D
:10006F00FAE493A3F8E493A3C8C582C8CAC583CAA8
:10007F00F0A3C8C582C8CAC583CADFE9DEE780BE60
:0101BE000040
:00000001FF
