:1001F6001204001203EE1203AFEF605005225322E1
:10020600031203AF8F21E521B41603E4F522E5219D
:10021600B40C03752201E521B41803752202E52109
:10022600B45E03752203E5227004FF120403E5227F
:10023600B401057F19120403E522B402057F3212C8
:100246000403E522B403057F64120403E522FD7C62
:0A025600007F017E00120260809616
:10000600EF1FAC0670011E4C600A7D027CEFDCFE21
:04001600DDFC80ECA1
:01001A0022C3
:0503E800E4AF20F52048
:0103ED0022ED
:10037B00E4FF20B1010F20B0027F0220B2027F0305
:05038B0020B3027F0415
:01039000224A
:10032B00851E1F12037B8F1EE51FB40107E51E7090
:10033B0003752001E51FB40207E51E70037520024B
:10034B00E51FB40307E51E7003752003E51FB40416
:08035B0007E51E700375200484
:010363002277
:0C03A2000A143F065B4F666D7D077F6FFD
:10026000EE705BEF14B40800505490027875F00300
:10027000A4C58325F0C58373020290020294020292
:100280009802029C0202A00202A80202B00202B876
:10029000D2A4800ED2A48012D2A48016D2A4801A36
:1002A000C2A4D2A3D2A28016C2A4D2A3C2A2800E9C
:1002B000C2A4C2A3D2A28006C2A4C2A3C2A27414C2
:0602C0002DF8E6F5802296
:1003640053890F438910758B66758DFCC28FD28EAD
:07037400D2ABD2AFD2BB22D5
:0B03C900D288C289D2A8D2AFD2B822DD
:0603EE001203910203C995
:0D03AF00E50F6006E4F50F7F01227F0022BC
:0D03BC00E50D6006E4F50D7F01227F0022B3
:0303FA00AF0C2223
:0303FD00AF0B2221
:0300030002001EDA
:10001E00C0E0C0F0C083C082C0D075D000C000C0A8
:10002E0001C002C003C004C005C006C007E50870C9
:10003E000CFFFE1203D47F011203F48049E508641D
:10004E000170491203DF8E098F0AE4FFFE1203D4FA
:10005E00D3E50A94C8E50994324010E50A94B0E558
:10006E00099436500675080202014FD3E50A94FE34
:10007E00E50994294010E50A94E6E509942D500609
:10008E00750D0102014775080102014FE508640272
:10009E00600302014F1203DF8E098F0AE4FFFE1286
:1000AE0003D4D3E50A946CE5099402402CE50A9436
:1000BE0054E50994065022E50E131313541F241011
:1000CE00F8C000E6FFE50E5407FE7401A80608808E
:1000DE0002C333D8FCF45F8034D3E50A94D6E50925
:1000EE0094064030E50A94BEE509940A5026E50EC2
:1000FE00131313541F2410F8C000E6FFE50E540727
:10010E00FE7401A806088002C333D8FC4FD000F657
:10011E00050E8006750E00750801E50EC39420408D
:10012E0020750E00E511F4B5100FE513F4B51209A4
:10013E0085100C85120B750F01E4FF1203F4750880
:10014E0000D007D006D005D004D003D002D001D005
:0C015E0000D0D0D082D083D0F0D0E032AE
:0304000002036490
:030403008F232222
:03001B000202C618
:1002C600C0E0C0F0C083C082C0D075D000C000C0FE
:0D02D60001C002C003C004C005C006C0077F
:1002E300758B9C758DFF0524E52475F0648485F07A
:1002F30024E524C395235004D2908002C29005259F
:0D030300E525D39414400675250012032B48
:10031000D007D006D005D004D003D002D001D00041
:0B032000D0D0D082D083D0F0D0E032EB
:100391005389F0438901758A66758CFCC28DC28CC4
:0103A1002239
:0B03D400AD07AC068C8CAF058F8A22B1
:0903DF00AF8CEFFEAD8AEDFF22A8
:0603F400EF24FF928C22B1
:0300000002016A90
:0C016A00787FE4F6D8FD7581250201B114
:100176000201F6E493A3F8E493A34003F68001F2A8
:1001860008DFF48029E493A3F85407240CC8C3338A
:10019600C4540F4420C8834004F456800146F6DF59
:1001A600E4800B01020408102040809003A2E47E44
:1001B600019360BCA3FF543F30E509541FFEE4934E
:1001C600A360010ECF54C025E060A840B8E493A315
:1001D600FAE493A3F8E493A3C8C582C8CAC583CA40
:1001E600F0A3C8C582C8CAC583CADFE9DEE780BEF8
:0103AE00004E
:00000001FF
