:1008A900543A0054483A00544C3A004F563A4800DA
:0A08B9004F563A4C0020202020008A
:10039F0012096D7FE87E03120935E4FF12072D8FD6
:1003AF000F7F0112072D8F0AD3E50F648094FD5044
:1003BF0016C3E50A64809449400DD3E50A6480F8BA
:1003CF00E50F6480985006750F14750A0F12094ACD
:1003DF007BFF7A0879A97D017F011207D67BFF7A0F
:1003EF000879AC7D017F021207D67BFF7A0879B0BE
:1003FF007D097F021207D6E50FFB3395E0FA7519D9
:10040F00037D047F02120616E50AFB3395E0FA75A9
:10041F0019037D0C7F021206161208DC1209B98F20
:10042F001012096D12075D8F0E8E0D8D0C8C0BE463
:10043F00FFFEFDFCAB0EAA0DA90CA80B1201B450C8
:10044F001E7B2D7D037F0112099CAF0EAE0DAD0CEF
:10045F00AC0B12022D8F148E138D128C1180157B05
:10046F002B7D037F0112099C850E14850D13850CBE
:10047F0012850B11AF14AE13AD12AC1112027CAB7F
:10048F0007AA067519037D047F011208537B2E7D81
:10049F00077F0112099CE4FFFE7DC87C42AB14AAC2
:1004AF0013A912A81112000E12027C7C007D641297
:1004BF00033CAA04AB057519027D087F011208538E
:1004CF00E510700302056EB4010E050FD3E50F643E
:1004DF008094FD4003750F7DE510B40211150FD305
:1004EF00E50A6480F8E50F6480985002050FE51067
:1004FF00B40311050AC3E50F6480F8E50A64809818
:10050F004002150AE510B4040E150AC3E50A64800B
:10051F0094495003750AC9E50FFB3395E0FA751935
:10052F00037D047F02120616E50AFB3395E0FA7588
:10053F0019037D0C7F02120616E50FFD3395E0FCC3
:10054F00E4FF1207B27F057E00120935E50AFD337D
:10055F0095E0FC7F011207B27F057E00120935ACD2
:10056F000FEC120248AB0EAA0DA90CA80B1201B486
:10057F00600A40087BFF7A0879B48019AC0AEC1244
:10058F000248AB0EAA0DA90CA80B1201B450107B98
:10059F00FF7A0879B97D0D7F011207D602042B7BF4
:0F05AF00FF7A0879BE7D0D7F011207D602042B5B
:03000B000205BE2D
:1005BE00C0E0C0F0C083C082C0D075D000C000C003
:0D05CE0001C002C003C004C005C006C00784
:1005DB00758A18758CFC0509E50970020508C3942A
:1005EB0014E5089400400975080075090012068986
:1005FB00D007D006D005D004D003D002D001D00054
:0B060B00D0D0D082D083D0F0D0E032FD
:10093500EF1FAC0670011E4C600A7D027CEFDCFEE9
:04094500DDFC80EC69
:01094900228B
:06095E00C2A58F80D2A7A4
:080964007F027EEFDEFEDFFCE6
:01096C002268
:0A099200C2A612095EC2A7020964A2
:1007F900CFCDCFCECCCE12033C7C007D0A12033C78
:04080900ED2430FFAB
:0A080D00D2A612095EC2A702096418
:1008F300AE07BE0104ED148006BE0209ED243F4499
:0609030080FF12099222A0
:10094A007F381209927F0C1209927F061209927F50
:04095A0001020992FB
:0A099C00AC031208F3AF0402080DCB
:0607D6008B158A1689173D
:1007DC001208F3E4FDAB15AA16A9178D82758300D8
:0C07EC001202FDFF600612080D0D80E9EE
:0107F80022DE
:0C06FA007F0AEA24FFFDE434FFFC7E00D0
:080706008E1C8F1D8C1E8D1F3F
:10070E007F017E00E4FBEBC3951FE51E6480F87449
:0E071E008098500AAC1CAD1D12032A0B80E817
:01072C0022AA
:040853008A178B185D
:100857001208F3AA19EAD39400400D1206FAAC174E
:08086700AD181207F91A80ED2B
:01086F002266
:100616001208F3C3EA64809480400B7F2B12080D06
:100626008A1A8B1B800E7F2D12080DC3E49BF51BC7
:10063600E49AF51AAA19EAD39400400D1206FAAC08
:090646001AAD1B1207F91A80ED30
:01064F002288
:040650008A228B234C
:100654001208F3AA24EAD3940040297F101206FC5E
:10066400AC22AD23CFCDCFCECCCE12033CEF540F72
:10067400FEC3940AEE5004243080022437FF12088B
:040684000D1A80D1FA
:01068800224F
:0406C2008A278B28D0
:1006C6001208F3AA29EAD394004028EA24FFFDE49D
:1006D60034FFFC7F027E00120706AC27AD28CFCD83
:1006E600CFCECCCE12033CEF54012430FF12080DBE
:0306F6001A80D295
:0106F90022DE
:10081700C2AFD2B7C2B77FF7DFFED2B77F20DFFE06
:0D082700A2B7E433FE7FF7DFFED2AFAF06CD
:0108340022A1
:10090900C2AFC2B77E04DEFEEF24FF92B77E18DEC7
:05091900FED2B7D2AFD1
:01091E0022B6
:10088D00C2AFC2B77F02DFFED2B77F02DFFEA2B7D3
:0B089D00E433FE7F18DFFED2AFAF0691
:0108A800222D
:0208C300AD077F
:1008C500E4FC7401A804088002C333D8FC5DFF1260
:0608D50009090CBC08EC4F
:0108DB0022FA
:10087000E4FDFC12088DEF600D7401A804088002ED
:0C088000C333D8FC42050CBC08E9AF05EE
:01088C002249
:0D096D001208177FCC1208C37F440208C394
:10075D001208177FCC1208C37FBE1208C31208708F
:10076D008F15120870EFFEE515FFFDAC06EC1202B9
:0B077D0043E4FBFA7980784112011779
:01078800224E
:1007B2008F158C168D171209B07FA01207891209A6
:1007C2007AAF1512078912097AAF1712078912092F
:0407D2007A020003A4
:02072D008F1526
:10072F001209B07FA012078912097AAF1512078933
:10073F0012097A1209B07FA112078912097A1208D9
:0D074F00358F167F011209A6120003AF16A8
:01075C00227A
:0909B000D2A0D2A1C2A0C2A12272
:07000300C2A0D2A1D2A0228D
:02078900AD07BA
:10078B00E4FB74807E00A803088006CEA2E713CE9C
:10079B0013D8F8FFEDF582EF558224FF92A0D2A17A
:0607AB00C2A10BBB08DC3B
:0107B1002225
:10083500E4FFD2A0FED2A130A00D7480A8060880E6
:0D08450002C313D8FC4207C2A10EBE08E892
:010852002283
:0A09A600EF24FF92A0D2A1C2A1220B
:0B097A00D2A0D2A1A2A0E433FFC2A1D2
:01098500224F
:1008DC005389F0438901758A66758CFCC28DD28C64
:0708EC00D2A9D2AFD2B9225C
:0509B900E4AF2CF52C59
:0109BE002216
:10091F00E4FF20B1010F20B0027F0220B2027F035B
:05092F0020B3027F046B
:0109340022A0
:10068900852A2B12091F8F2AE52BB40107E52A7049
:1006990003752C01E52BB40207E52A7003752C02BA
:1006A900E52BB40307E52A7003752C03E52BB40485
:0806B90007E52A7003752C040B
:0106C1002216
:10000E00EC4D6011E8497017ED33EC3304600DE4EC
:10001E00FCFFFEFD22E933E8330470F80202E81219
:10002E0002B358046009E4CC24815006285009021A
:10003E0002F22840030202EFC0E0EB4A7044B9809E
:10004E0006D0E0FB0202DEEF4E701CBD8008EBFF17
:10005E00EAFEE9FD80EBE98DF0A4FEE5F00200F783
:10006E00E9CDF9EAFEEBFFEF89F0A4FCE5F0CE89CD
:10007E00F0A42EFFE435F0CD89F0A42DFEE435F08A
:10008E008067EF4E7005BD80D780C3EF8BF0A4ACB8
:10009E00F0EE8BF0A42CFCE435F0F8EF8AF0A42CF3
:1000AE00E5F038FCE433CB8DF0A42CFCE5F03BF806
:1000BE00EE8AF0A42CFCE5F038F8E433CF89F0A4F6
:1000CE002CFCE5F038CF3400CE89F0A42FFFE5F0FC
:1000DE003EFEE433C98DF0A42EFEE5F039CD8AF054
:1000EE00A42FFFE5F03EFEE43DFD33D0E0FB5007CC
:1000FE000BBB000F0202F2EC2CFCEF33FFEE33FED3
:06010E00ED33FD0202CA00
:100114000202F2EC5D046005E8590470030202E88F
:100124001202B3580460F6EC4860F2EC7004FDFE71
:10013400FF22C860DB2481C85009C39860025006BE
:100144000202EF9850CAF582E9294B4A7005AB8246
:100154000202DE75F0007C1A7880C3EF9BEE9AED04
:1001640099400DC3EF9BFFEE9AFEED99FDE842F036
:10017400DC23ACF0D0E0FFD0E0FED0E0FDAB822089
:10018400E7101BEB60BAEC2CFCEF33FFEE33FEED13
:1001940033FD0202CAE803F830E705C0F075F00049
:1001A400EF2FFFEE33FEED33FD40B830E7C280AAF7
:1001B40074F8CC6480CCC86480C8F58204604FC3F2
:1001C400EB9FF5F0EA9E42F0E99D42F0E89C45F091
:1001D400603C501DE5825FFFE582D313CB5BCBF41B
:1001E4002B5582FB50280ABA002409B90020088044
:1001F4001DE5825BFBE582D313CF5FCFF4C3132FDE
:100204005582FF50090EBE00050DBD00010CC3EB65
:100214009FF5F0EA9E42F0E99D42F0E89C45F060CB
:0902240007CC4820E701B3EC22ED
:10022D00ED33EC33600A047003BD8004ECB2E7FCDF
:01023D00229E
:10023E0075F020800E75F010800575F0087D007E3B
:10024E00007F003392D530D503120391EC3340106A
:10025E00EF33FFEE33FEED33FDEC33FCD5F0ED2244
:0E026E00E5F0247EA2D513CC92E7CDCEFF2280
:10027C00EDD2E7CD33EC3392D524814006E4FFFE7A
:10028C00FDFC22FCE4CFCECDCC24E0501174FF80D9
:10029C00EDC3CC13CCCD13CDCE13CECF13CF047076
:0702AC00F030D5DE020391E2
:1002B300E9D2E7C933E833F892D5EDD2E7CD33EC91
:0702C30033FC5002B2D5220A
:1002CA00EC30E7100FBF000C0EBE00080DBD000495
:1002DA000BEB6014A2D5EB13FCED92E7FD2274FF41
:1002EA00FCFDFEFF22E480F8A2D574FF13FC7D809A
:0302FA00E480EFAE
:030000000209866C
:0C098600787FE4F6D8FD75812C02039FF9
:1002FD00BB010CE58229F582E5833AF583E02250B6
:10030D0006E92582F8E622BBFE06E92582F8E222FF
:0D031D00E58229F582E5833AF583E4932219
:10032A00EF8DF0A4A8F0CF8CF0A428CE8DF0A42EE7
:02033A00FE22A1
:10033C00BC000BBE0029EF8DF084FFADF022E4CCA5
:10034C00F875F008EF2FFFEE33FEEC33FCEE9DEC6E
:10035C00984005FCEE9DFE0FD5F0E9E4CEFD22EDB4
:10036C00F8F5F0EE8420D21CFEADF075F008EF2FFE
:10037C00FFED33FD4007985006D5F0F222C398FDEF
:05038C000FD5F0EA228C
:0E039100C3E49FFFE49EFEE49DFDE49CFC227D
:00000001FF
