:1002BD005975616E5368656E4E42004C42574E4201
:0102CD000030
:0402F10002250000E2
:100224001202A97BFF7A0279BD7D017F01120201CE
:0F0234007BFF7A0279C87D017F0212020180E40C
:0602CE00C2A58F80D2A73B
:0802D4007F027EEFDEFEDFFC7D
:0102DC0022FF
:0A02DD00C2A61202CEC2A70202D48C
:10024300CFCDCFCECCCE1200427C007D0A1200422D
:04025300ED2430FF67
:0A025700D2A61202CEC2A70202D402
:10027E00AE07BE0104ED148006BE0209ED243F4414
:06028E0080FF1202DD22D8
:1002A9007F381202DD7F0C1202DD7F061202DD7F2C
:0402B900010202DD5F
:0A02E700AC0312027EAF04020257BE
:060201008B228A238924F0
:1002070012027EE4FDAB22AA23A9248D8275830006
:0C021700120003FF60061202570D80E980
:0102230022B8
:0C01CE007F0AEA24FFFDE434FFFC7E0001
:0801DA008E1E8F1F8C208D2169
:1001E2007F017E00E4FBEBC39521E5206480F87477
:0E01F2008098500AAC1EAD1F1200300B80E842
:0102000022DB
:040261008A118B1261
:1002650012027EAA13EAD39400400D1201CEAC11FE
:08027500AD121202431A80EDE4
:01027D00225E
:1001230012027EC3EA64809480400B7F2B12025735
:100133008A0D8B0E800E7F2D120257C3E49BF50EA2
:10014300E49AF50DAA0CEAD39400400D1201CEAC4B
:090153000DAD0E1202431A80EDFD
:01015C002280
:04015D008A168B175C
:1001610012027EAA18EAD3940040297F101201D00E
:10017100AC16AD17CFCDCFCECCCE120042EF540F7F
:10018100FEC3940AEE5004243080022437FF120289
:04019100571A80D1A8
:010195002247
:040196008A1B8B1C19
:10019A0012027EAA1DEAD394004028EA24FFFDE455
:1001AA0034FFFC7F027E001201DAAC1BAD1CCFCDFE
:1001BA00CFCECCCE120042EF54012430FF120257A8
:0301CA001A80D2C6
:0101CD00220F
:10029400EF1FAC0670011E4C600A7D027CEFDCFE91
:0402A400DDFC80EC11
:0102A8002233
:0300000002009764
:0C009700787FE4F6D8FD7581260200DEBB
:10000300BB010CE58229F582E5833AF583E02250B2
:1000130006E92582F8E622BBFE06E92582F8E222FC
:0D002300E58229F582E5833AF583E4932216
:10003000EF8DF0A4A8F0CF8CF0A428CE8DF0A42EE4
:02004000FE229E
:10004200BC000BBE0029EF8DF084FFADF022E4CCA2
:10005200F875F008EF2FFFEE33FEEC33FCEE9DEC6B
:10006200984005FCEE9DFE0FD5F0E9E4CEFD22EDB1
:10007200F8F5F0EE8420D21CFEADF075F008EF2FFB
:10008200FFED33FD4007985006D5F0F222C398FDEC
:050092000FD5F0EA2289
:1000A300020224E493A3F8E493A34003F68001F24D
:1000B30008DFF48029E493A3F85407240CC8C3335E
:1000C300C4540F4420C8834004F456800146F6DF2D
:1000D300E4800B01020408102040809002F1E47ECA
:1000E300019360BCA3FF543F30E509541FFEE49322
:1000F300A360010ECF54C025E060A840B8E493A3E9
:10010300FAE493A3F8E493A3C8C582C8CAC583CA13
:10011300F0A3C8C582C8CAC583CADFE9DEE780BECB
:0102F5000008
:00000001FF
