:100165001201DD1200038F13E513640170230515D9
:10017500531503E5157002F512E515B40103751263
:1001850019E515B40203751232E515B403037512AA
:0F01950064E515FD7C007F017E0012009A80C496
:03000B00020100EF
:10010000C0E0C0F0C083C082C0D075D000C000C0C5
:0D01100001C002C003C004C005C006C00746
:10011D00758A9C758CFF0514E51475F0648485F063
:10012D0014E514C395125004D2908002C2900519A3
:0D013D00E519D3941440067519001201A4B1
:10014A00D007D006D005D004D003D002D001D00009
:0B015A00D0D0D082D083D0F0D0E032B3
:10020A00EF1FAC0670011E4C600A7D027CEFDCFE1B
:04021A00DDFC80EC9B
:01021E0022BD
:05000300E4AF18F51840
:0100080022D5
:1001F400E4FF20B1010F20B0027F0220B2027F038E
:0502040020B3027F049D
:0102090022D2
:1001A4008516171201F48F16E517B40107E51670CA
:1001B40003751801E517B40207E5167003751802F4
:1001C400E517B40307E5167003751803E517B404BF
:0801D40007E51670037518041D
:0101DC002200
:0C021F000A083F065B4F666D7D077F6F8D
:10009A00EE705BEF14B4080050549000B275F00390
:1000AA00A4C58325F0C583730200CA0200CE0200EC
:1000BA00D20200D60200DA0200E20200EA0200F2EC
:1000CA00D2A4800ED2A48012D2A48016D2A4801AFE
:1000DA00C2A4D2A3D2A28016C2A4D2A3C2A2800E64
:1000EA00C2A4C2A3D2A28006C2A4C2A3C2A2740896
:0600FA002DF8E6F580225E
:1001DD005389F0438901758A9C758CFFC28DD28C31
:0701ED00D2A9D2AFD2B92262
:0300000002000EED
:0C000E00787FE4F6D8FD758119020055DA
:10001A00020165E493A3F8E493A34003F68001F296
:10002A0008DFF48029E493A3F85407240CC8C333E7
:10003A00C4540F4420C8834004F456800146F6DFB6
:10004A00E4800B010204081020408090021FE47E25
:10005A00019360BCA3FF543F30E509541FFEE493AB
:10006A00A360010ECF54C025E060A840B8E493A372
:10007A00FAE493A3F8E493A3C8C582C8CAC583CA9D
:10008A00F0A3C8C582C8CAC583CADFE9DEE780BE55
:01022B0000D2
:00000001FF
